:100000000C942F020C9476020C9476020C947602D7
:100010000C9476020C9476020C9476020C94760280
:100020000C9476020C9476020C94CC240C949F25AC
:100030000C94CF1A0C9476020C9476020C947602EF
:100040000C9476020C9476020C9476020C94760250
:100050000C9476020C94371B0C9476020C94760266
:100060000C9476020C9476020C9476020C94760230
:100070000C9476020C9476020C9476020C94760220
:100080000C9476020C9476020C9476020C94760210
:100090000C94BF0A0C9476020C9476020C947602AF
:1000A0000C9476020C9476020C9476021E001F00CB
:1000B000200021002200290014001A000800150069
:1000C0001700390004001600070009410A004A0021
:1000D0001D001B000600190005004C000000000078
:1000E0007A00E2002C42E1002700260025002400CF
:1000F00023004B00130012000C0018001C004E00DF
:1001000033000F000E000D000B004D0038003700CB
:100110003600100011002A000000000079002800BD
:100120002C00E0003A003B003C003D003E003F0058
:1001300000000000000000000000000000000000BF
:1001400000000100000000000000000000000000AE
:10015000000000000000000000000000000001009E
:100160004500440043004200410040000000000000
:10017000000000000000000000004F00520051008D
:100180005000A90000000000000000000000AA00CC
:10019000000000000000000000000000000000005F
:1001A000000000000000000000000000000000004F
:1001B000000000000000000000000000000000003F
:1001C000000000000000000000000000000000002F
:1001D000000000000000000000000000000000001F
:1001E0000000000030022F02310038000000000043
:1001F0002702260230002F0000000000000000004F
:1002000031022E002D000000000000000000000060
:1002100000000000000000000001010101010101D7
:1002200001010202020202020202020303030303AB
:100230000303030404040404040505050505060678
:1002400006060607070707080808080909090A0A31
:100250000A0A0B0B0B0C0C0C0D0D0D0E0E0F0F0FD5
:10026000101011111112121313141415151616175C
:1002700017181819191A1A1B1C1C1D1D1E1F1F20C8
:10028000202122222324252526272728292A2B2B13
:100290002C2D2E2F2F303132333435363637383936
:1002A0003A3B3C3D3E3F4041424344464748494A31
:1002B0004B4C4D4F50515253555657585A5B5C5EFC
:1002C0005F606263646667696A6C6D6E7071737497
:1002D0007678797B7C7E8081838486888A8B8D8FFB
:1002E00091929496989A9B9D9FA1A3A5A7A9ABAD27
:1002F000AFB1B3B5B7B9BBBDBFC1C4C6C8CACCCF17
:10030000D1D3D6D8DADCDFE1E4E6E8EBEDF0F2F5C4
:10031000F7FAFCFF0403300000001C0349007200E0
:100320006900730020004B006500790062006F00D7
:1003300061007200640000000E034B006500650060
:10034000620069006F0000000403090409023B0019
:10035000020100A0FA0904000001030101000921C3
:10036000110100012240000705810308000A090469
:100370000100010300000009211101000122850094
:100380000705820320000A1201100100000008EB9B
:10039000CE561200020102030105010902A10185E6
:1003A000020901A10005091901290515002501957A
:1003B0000575018102950175038101050109300967
:1003C000311581257F95027508810609381581252B
:1003D0007F950175088106050C0A38021581257F75
:1003E000950175088106C0C005010980A10185033A
:1003F0001601002603001A81002A8300751095015A
:100400008100C0050C0901A1018504160100269C8C
:10041000021A01002A9C02751095018100C0050195
:100420000906A101050719E029E71500250195082E
:1004300075018102950175088101050819012905D9
:100440009505750191029501750391010507190044
:1004500029FF150026FF00950675088100C01124AC
:100460001FBECFEFDAE0DEBFCDBF04B603FE27C06C
:100470008091500290915102A0915202B09153028A
:100480008730904BA740B04BD1F41092500210929D
:100490005102109252021092530214BE84B7877F09
:1004A00084BF0FB6F894A89580916000886180930E
:1004B0006000109260000FBEE0E0F8E3099511E0E3
:1004C000A0E0B1E0EEE2F0E502C005900D92AE32A0
:1004D000B107D9F722E0AEE2B1E001C01D92A0352C
:1004E000B207E1F70E94FB210C9415280C94000040
:1004F0000C94F90781E0089581E008950C947C0242
:100500000C94FB07CF92DF92EF92FF92863028F592
:10051000811124C0909180009F7790938000282FB4
:1005200030E0AFEFBFEF0E94B32725E030E040E0BE
:1005300050E00E948B27C9012C3764E1360790F404
:1005400069E070E00E9463277093890060938800DF
:10055000FF90EF90DF90CF90089585E0909180001C
:100560009068DBCF2A50374D4F4F5F4F942F832F2A
:10057000722F662725EF38E241E050E00E948B277A
:1005800069017A01CA01B9010E9453279B01AC019C
:10059000C701B6010E945327672F782F892F99270B
:1005A0006115710521E08207910571F66FEF7FEF0C
:1005B000CBCF259A2D9882E88093800089E18093A3
:1005C00081008FEF9FEF90938700809386000C94BB
:1005D0009E1F0E94BF19811102C00E94361A0E94FC
:1005E000D9020C94780208950C94F3020C94F4024E
:1005F00008950E944E130E94F8022FEF84E39CE0BE
:10060000215080409040E1F700C0000087E797E765
:1006100090930108809300080C945D1BFF920F9348
:100620001F93CF93DF938C01FC01C081D181809116
:100630006201811149C08281882309F440C0CE0142
:100640000E949918F82E682FCE010E943D18BE0115
:100650008F2D0E945205EC01B8010E947E02882372
:1006600009F4D1C0C93CFCE5DF0709F40BC108F06F
:1006700071C0C23C9CE5D90709F4DDC008F041C057
:10068000C531FCE5DF0728F5C2308CE5D80708F056
:100690001EC1C1159CE5D90709F4B0C0C130DC45C5
:1006A00009F4B8C081E08093330180933401C8011C
:1006B000DF91CF911F910F91FF900C947A02CE01A0
:1006C0000E946D18F82EC3CFCE010E949918BE016A
:1006D000C0CFC631DC4531F70E948019F801928104
:1006E000992309F4D1C18A7A91E009F490E09093BA
:1006F0002E018111C7C189E20E9409190E944D197A
:1007000082C0C53C8CE5D80709F4ABC0A8F4C33C53
:10071000ECE5DE0709F499C0C43CDC4519F6F801A4
:100720008281882309F46FC00E948019827209F4C3
:1007300095C00E943C0D85C0F8018281C73CFCE554
:10074000DF0709F49AC008F493C081115CC00E94CD
:10075000C60C77C0C63DECE5DE07E8F4CE3CFCE510
:10076000DF0708F050C0CB3C8CE5D80709F498C0EF
:1007700008F48FC0CC3CECE5DE0709F499C0CD3C11
:10078000DC4509F08FCFF80182818823E1F181E017
:100790000E94390D56C0C83D8CE5D80709F457C1F1
:1007A000C0F4C63DECE5DE0709F415C1C73DDC45E4
:1007B00009F078CFF8018281882309F433C11092BF
:1007C00034010E94011B909332018093310180E239
:1007D0000FC1CC3D8CE5D80709F472C0CD3D9CE536
:1007E000D90711F1CB3DDC4509F05CCFF8018281DE
:1007F000882349F080E00E94942205C0F80182819C
:1008000081110E94F90280E0DF91CF911F910F9139
:10081000FF900895F80182818823A9F38091D8017F
:1008200081608093D801EFCFF8018281882359F34A
:100830000E94361AE8CFF80182818111E4CF0E942C
:10084000510D81E080934E01DECFF8018281882333
:10085000D1F20E948019827209F46BCF0E943F0D81
:10086000F0CFF80182818111CECF0E94770CE9CFC1
:100870008111C9CF0E948F0CE4CF8111C4CF0E9497
:10088000AE0CDFCFF80182818111BDCF0E94DE0C5A
:10089000D8CFF80182818111B6CF0E94F60CD1CF5A
:1008A000F8018281882309F4AECF0E94BE0BABCF42
:1008B000F8018281882309F4A6CF0E94D30BA3CF2D
:1008C000F8018281882309F49ECF82E094CFF80159
:1008D0008281882309F4EBCE0E94BF19811102C0E6
:1008E0000E94361A0E94D21990E0909341028093A0
:1008F0004002FE01E350FC45809140028160E231FC
:10090000F105C8F4EA57FB4F0C94AD279804A404F2
:10091000A804AC04B004B404B804BC04C004C40407
:10092000C804CC04D004D404D804DC04E004E404F7
:1009300080914002826080934002809140020E9438
:10094000D6190E944E135FCF809140028460F3CF8E
:10095000809140028860EFCF809140028061EBCFB0
:10096000809140028062E7CF809140028064E3CFB3
:10097000809140028068DFCF809140028460EACF9E
:10098000809140028E7FD7CF809140028D7FD3CF60
:10099000809140028B7FCFCF80914002877FCBCF69
:1009A000809140028F7EC7CF809140028F7DC3CF60
:1009B000809140028F7BBFCF809140028F77BBCF69
:1009C000809140028B7FEACF90914002892F97FB64
:1009D00087F98058B0CFF8018281882361F01092A6
:1009E00033010E94011B9093300180932F0182E01C
:1009F0000E94511008CF8091330181110FC0809166
:100A00002F01909130010E940D1B883C910530F41C
:100A100086E20E94180F86E20E94FB0F82E00E948D
:100A20005810F1CE8091340181110FC080913101B5
:100A3000909132010E940D1B883C910530F487E2B1
:100A40000E94180F87E20E94FB0F80E2E8CFF801B6
:100A500082818111B4CE809134018111F6CF8091D1
:100A60003101909132010E940D1B883C910568F77D
:100A700080E20E94581088E20E94180F88E20E94CB
:100A8000FB0FC1CE85E338CE80912E01811104C0C9
:100A900089E20E94101932CE85E3FBCF90E080E01E
:100AA00008950895972F70E026E0929F600D711DC4
:100AB0001124FB019CE3899FE00DF11D1124EE0F31
:100AC000FF1FE455FF4F859194910895FC01EE0FAF
:100AD000FF1FEC5EFD4F859194910895CF93DF93B6
:100AE0000E9452050E945607EC018115914508F0BD
:100AF0004BC0C11580E5D80708F027C1C83ED10515
:100B000010F5C03ED10580F5C83AD10570F4C53A5C
:100B1000D10508F0ADC0C130D10531F118F0C430B5
:100B2000D10510F5D0E0C0E01FC0CD3BD10508F4E1
:100B3000AAC0CE01805C9109C03CD10598F30E9407
:100B40006605EC0111C0C11520E3D20788F4C11578
:100B500080E2D80708F0F0C0C03FD10518F3CF3FBE
:100B6000D10509F008F4E6C0CE01DF91CF910895D8
:100B7000C11520E4D20708F0E5C0CE019927D3FFC4
:100B8000DEC0EC01D86CF0CFC11589E5D80740F57F
:100B9000C11528E5D20708F021C1C11584E5D807A1
:100BA00078F4C11523E5D20708F0FFC0C11582E52E
:100BB000D80708F0E6C0DC2FCC27C16FD06AD4CFAD
:100BC000C11525E5D20708F404C1C11586E5D8078B
:100BD00008F0A8CFDC2FCC27CC27DF71D062C4CFA0
:100BE000CD3B2CE5D20709F40AC1C8F4CB3B2CE578
:100BF000D20709F4F8C008F0FCC0C1152AE5D207F5
:100C000008F090CFCE0134E0969587953A95E1F7BC
:100C10008F70CF70C06ED0E0D06AD82BA5CFC03C0B
:100C20008CE5D80709F4F7C078F4CE3B8CE5D807FB
:100C300009F4EBC0CF3BDC4509F074CF81E0809331
:100C40004D01C0E0D2ED90CFCE019056811590427B
:100C500008F068CF8D2F8F710E94D607DD27D062F4
:100C600090E0982F882788279F71C82BD92B7CCF9D
:100C7000C53AD10509F4D5C0C63AD10509F4D4C0A6
:100C8000C3E8D0E471CFC83AD10509F4D0C0C93A5D
:100C9000D10509F4CFC0CA3AD10509F4CEC0CB3A88
:100CA000D10509F4CDC0CC3AD10509F4CCC0CB3B79
:100CB000D10509F4CBC0CC3BD10509F4CAC0CD3A6B
:100CC000D10509F4C9C0C03BD10509F4C8C0CE3A6A
:100CD000D10509F4C7C0CF3AD10509F4C6C0C13B5C
:100CE000D10509F4C5C0C23BD10509F4C4C0C33B5A
:100CF000D10509F4C3C0C43BD10509F4C2C0C53B4A
:100D0000D10509F4C1C0C63BD10509F4C0C0C73B39
:100D1000D10509F4BFC0C83BD10509F4BEC0C93B29
:100D2000D10509F4BDC0CA3BD10509F0BCC0CAE277
:100D3000D6E41ACFD06518CFCE019F7000CFEC015A
:100D4000D06C12CFDF70D06A0FCFCE01E4E0969561
:100D50008795EA95E1F783709C2F937021E030E04E
:100D600002C0220F331F9A95E2F73C68382BC695D4
:100D7000C695C37080E2C89FE0011124C22BD32B1B
:100D8000F3CECE018370992721E030E002C0220F1C
:100D9000331F8A95E2F7C695C69580E2C89FE001A9
:100DA0001124C22BD32BDC68DFCECE0183709927B0
:100DB00021E030E002C0220F331F8A95E2F7C6958A
:100DC000C69580E2C89FE0011124C22BD32BDA68BC
:100DD000CBCEDC2FCC27C46FD06AC6CEDC2FCC277D
:100DE000C06FD06AC1CE81E080934D01C0E0D4EDE8
:100DF000BBCE81E080934D01C0E0D5EDB5CE81E062
:100E000080934D01C0E0D1EDAFCE81E080934D01E4
:100E1000C0E0D0EDA9CE81E080934D01C0E0D3EDDC
:100E2000A3CEC1E8D0E4A0CEC2E8D0E49DCEC2EE0D
:100E3000D4E49ACEC9EED4E497CECAEED4E494CEEC
:100E4000C5EBD4E491CEC6EBD4E48ECEC3EBD4E4B0
:100E50008BCEC4EBD4E488CEC7EBD4E485CECCEC07
:100E6000D4E482CECDECD4E47FCEC3E8D5E47CCE0E
:100E7000CAE8D5E479CEC2E9D5E476CEC4E9D5E4B2
:100E800073CEC1E2D6E470CEC3E2D6E46DCEC4E246
:100E9000D6E46ACEC5E2D6E467CEC6E2D6E464CE36
:100EA000C7E2D6E461CEC0E0D4E45ECE82389105DC
:100EB00049F1B0F48133910509F45CC048F48932FA
:100EC000910509F452C08A32910509F458C0089579
:100ED0008533910509F444C08933910599F008954B
:100EE000833E910531F138F4803E910591F0823EC8
:100EF0009105B1F00895863E910511F1873E910567
:100F000041F10895209140022370C9F080EE90E0F5
:100F100008952091400220FF12C089E390E00895D7
:100F20002091400222FF0BC024FF2EC090E080E001
:100F300008952091400222FD2AC024FDF7CF089594
:100F40002091400223FFFBCF24FDF0CF87EE90E0FD
:100F500008952091400223FFF0CF86EE90E008959F
:100F60002091400225FD16C008952091400225FDE4
:100F700014C008952091400226FD12C008952091CA
:100F8000400226FD10C0089583EE90E0089582EEA1
:100F900090E0089589E290E0089585E390E0089557
:100FA0008AE290E0089581E390E0C9CF90914002F9
:100FB00092FF06C0282F2871283069F4877F84604B
:100FC00093FF06C0282F2871283161F4877E846141
:100FD00094FD877E0895282F2471243089F78B7F14
:100FE0008860EECF282F2471243191F78B7E8861A1
:100FF000EFCF089508950C94FA0708958091D801D1
:10100000836088608093D80180910001AAE1B1E0FB
:1010100061E070E08D91E82FE295EF70F0E041A182
:101020008F709B0101C0220F8A95EAF7922F90954D
:10103000942391A382A1822B82A381E0AF31B807D0
:1010400049F7A4E1B1E061E070E08D91E82FE2950D
:10105000EF70F0E041A18F709B0101C0220F8A95D3
:10106000EAF7922F9095942391A382A1822B82A3D9
:1010700081E0AA31B80749F7E5E3F1E0A0E4B1E087
:101080008FE391E011921D928E179F07D9F70C9470
:10109000E9024F925F927F928F929F92AF92BF929E
:1010A000CF92DF92EF92FF920F931F93CF93DF9334
:1010B0008091000105E010E0882311F010E000E0CD
:1010C000C801805C9E4F7C018AE1C82E81E0D82E49
:1010D000E701AA24A394B12C9924939488801882C0
:1010E000D6018D916D01E82FE295EF70F0E091A1AE
:1010F0008F70950101C0220F8A95EAF7892F822B04
:1011000081A382A1722E7094872182A3B0EABA953E
:10111000F1F744E151E090E080E0DA017D91AD012A
:10112000A72FA295AF70B0E09096BC91A8817F7078
:10113000250102C0440C551C7A95E2F7B2016B23DD
:1011400009F04EC06A2D082E01C0660F0A94EAF716
:101150006A2B6883019686309105F9F681A1872173
:1011600081A382A1282B22A38881881641F0909226
:101170004A010E94011B90934C0180934B012196E0
:101180008FE1C81681E0D80609F0A8CF80914A0106
:101190008823A9F080914B0190914C010E940D1B76
:1011A000069768F0F801EB5CFE4F80E0D7019D9157
:1011B0007D0191938F5F8530C9F710924A0181E0DC
:1011C000DF91CF911F910F91FF90EF90DF90CF9023
:1011D000BF90AF909F908F907F905F904F900895B9
:1011E00060E0B6CFAF92BF92CF92DF92EF92FF92C4
:1011F0000F931F93CF93DF9300D000D0CDB7DEB70E
:1012000080910001F12CE12C882319F095E0E92E62
:10121000F12C80914D018823C1F082E30E94470A9E
:10122000082F10E00115110509F06EC080E00E9442
:101230007A0A082F10E00115110509F065C00E9417
:1012400051200E947A0A10924D0182E30E94470ABF
:10125000082F10E00115110509F056C086E00E9424
:101260007A0A082F10E00115110509F04DC083E33B
:101270000E94470A082F10E00115110509F044C02B
:10128000C7018B5C9E4F7C0184E0C82ED12C570196
:1012900081E090E00E94A90AF70181937F01F1E0CB
:1012A000CF1AD108A9F790E080E00E94A90AF501C1
:1012B00084830E946E0A80914E01882339F182E373
:1012C0000E94470A082F10E001151105E9F481E09A
:1012D0000E947A0A082F10E001151105A9F40E9456
:1012E000A40B69837A838B839C8364E0CE0101968F
:1012F0000E94890A082F10E00115110529F41092A7
:101300004E010E946E0A02C00E94B60AC8010F90E8
:101310000F900F900F90DF91CF911F910F91FF9041
:10132000EF90DF90CF90BF90AF900895CF930E9441
:101330004908C82F0E94F208892BD9F080913F01FB
:101340008F5F80933F01863078F080910001F0E05C
:10135000E0E0882311F0E5E0F0E0EB5CFE4F108266
:1013600011821282138214820E9480028C2FCF91EC
:10137000089510923F01F8CF0E9449088091000122
:10138000E5E0F0E0882311F0F0E0E0E0EB5CFE4FF8
:1013900086E090E02191DC01AF50BE4F2C93019686
:1013A0008B309105B9F70C94FD07E82FF0E0EB5C6A
:1013B000FE4F808108950895E8EDF0E0808180611E
:1013C00080838AE18A95F1F700C08091D90081700D
:1013D00008950E94DC09809300010E94DC098823A3
:1013E00039F00E94410A81E080934D01789408957C
:1013F0000E94F81A82E30E94B90AF8CFCF93DF93D4
:1014000000D000D0CDB7DEB70E94FE070E945B0D72
:101410000E94BC0980914D01882331F08091F10137
:101420000E94820210924D0180914E01882381F327
:10143000F8948091F20189838091F3018A838091ED
:10144000F4018B838091F5018C8369817A818B8192
:101450009C810E94890D10924E017894D9CF0E94F0
:10146000E9090E94DC09811102C00E94FE09089569
:1014700089EC90E02091BC0027FD02C00197D1F7D4
:1014800008951092B90088E48093B8000895CF932E
:10149000C82F84EA8093BC000E94380A8091B9006A
:1014A000887F883041F08091B900887F803119F0C1
:1014B00081E0CF910895C093BB0084E88093BC0085
:1014C0000E94380A8091B900887F883129F0809184
:1014D000B900887F803461F780E0EBCF84E98093A6
:1014E000BC0089EC90E02091BC0024FD02C0019773
:1014F000D1F708958093BB0084E88093BC000E94DC
:10150000380A9091B900987F81E0983209F480E020
:101510000895EF92FF920F931F93CF93DF937C0177
:101520008C01C62FD0E0C8018E199F098C179D072A
:1015300014F080E007C0F80181918F010E947A0ABF
:10154000882389F3DF91CF911F910F91FF90EF9046
:10155000089526E0880F991F2A95E1F78468809303
:10156000BC000E94380A8091BB0008951092BC0014
:1015700008958093BA0085EC8093BC0008951F9273
:101580000F920FB60F9211248F939F93EF93FF93B7
:101590008091B900887F8038C1F038F4882309F43D
:1015A0005BC0803679F081E022C0883A11F0883B38
:1015B000D1F7E0915001F0E0EF50FE4F8081809331
:1015C000BB0039C010924F01EECF80914F018111C5
:1015D00023C08091BB0080935001809150018032E4
:1015E000C8F01092500180E091E090934F019091EB
:1015F000BC008295880F880F807C9568892B80932A
:10160000BC00FF91EF919F918F910F900FBE0F90B3
:101610001F90189581E0E8CFE0915001F0E08091B3
:10162000BB00EF50FE4F80838091500181110CC0B0
:1016300081E080934D018091500190E001968F717F
:10164000992780935001AFCF80915001843099F752
:1016500081E080934E01EFCF1092BC00A4CFCF92D7
:10166000DF92EF92FF920F931F93CF93DF93E901E5
:10167000662309F466C0E42EF12CEFEFF0E0E61BE0
:10168000F109EE9D8001EF9D100DFE9D100D1124BE
:10169000212FE12FFF27EE1AFF0A5CE3C52ED12C84
:1016A000B6010E946327FB01BC01E69EC001E79ED4
:1016B000900DF69E900D1124B6010E946327E23032
:1016C000F10589F168F4812F262F210F309781F0E1
:1016D000242F461B319761F080E020E040E008C0F5
:1016E000E430F10551F128F1842F861B3597A1F7DD
:1016F000E42FF0E0EC5EFD4F4491E22FF0E0EC5E71
:10170000FD4F9491E82FF0E0EC5EFD4FE4914983AA
:101710009883EA83DF91CF911F910F91FF90EF9013
:10172000DF90CF900895862F810FE42F412F2E2F29
:10173000DFCFE42FE61B842FF9CF842F462F410FF4
:10174000D7CF842F242FD4CF88E090E00C94D527D6
:10175000AB01BC0188E090E00C94F327E1E1F2E0FA
:1017600083E08083109212028FEF8283838314823E
:1017700060817181828193810C94A80B8091150204
:1017800090E001968430910514F083E090E080931E
:1017900015026091110270911202809113029091D2
:1017A00014020C94A80B809115028150990B97FF9D
:1017B00002C090E080E08430910514F083E090E076
:1017C00080931502609111027091120280911302B0
:1017D000909114020C94A80B80911102E6E1F2E0C2
:1017E00080FF06C06CE070E086E192E00C94CF0DC3
:1017F000118210821282339682E0EA33F807C1F731
:10180000F1CFE1E1F2E080818E7F808360817181A0
:10181000828193810E94A80B2FEF80E792E02150F4
:1018200080409040E1F700C000000C94EC0B9091D8
:10183000110290FF0CC0E6E1F2E0818360834283F5
:10184000339692E0EA33F907C1F70C94EC0B089554
:10185000DF92EF92FF920F931F93CF93DF9300D00D
:101860001F92CDB7DEB7182FE92EF62E042FD22EF9
:101870008091110280FF2DC08E77823059F49E0135
:101880002F5F3F4F812F0E942F0B4B8169818A81EF
:101890000E94170C8091110210FB87F980931102AE
:1018A0001695809112028078812BE0FA87F9809357
:1018B0001202F092130200931402DD2051F06091A5
:1018C00011027091120280911302909114020E94F1
:1018D000A80B0F900F900F90DF91CF911F910F9158
:1018E000FF90EF90DF90089521E00C94280CE1E147
:1018F000F2E02081221F2227221F30911202432F63
:10190000440F842F822B37FB992790F90A9668E6BB
:1019100071E00E947727438162810C94740C2091BE
:101920001102221F2227221F30911202432F440F3F
:10193000842F822B37FB992790F98A30910540F448
:10194000825A9E4F40911402609113020C94740CC1
:101950000A9768E671E00E947727F4CF609113023E
:101960006F3E90F46F5E80911102881F8827881F58
:1019700090911202292F220F97FB992790F94091FD
:101980001402822B0C94740C6FEFEDCF6091130254
:10199000613190F0615180911102881F8827881F62
:1019A00090911202292F220F97FB992790F94091CD
:1019B0001402822B0C94740C60E0EDCF4091140261
:1019C0004F3E90F44F5E80911102881F8827881F38
:1019D00090911202292F220F97FB992790F960917D
:1019E0001302822B0C94740C4FEFEDCF4091140234
:1019F000413190F0415180911102881F8827881F42
:101A000090911202292F220F97FB992790F960914C
:101A10001302822B0C94740C40E0EDCF20E00C9468
:101A2000280C8091110280FF23C08178826080930E
:101A30001102662351F0609111027091120280919F
:101A40001302909114020E94A80B80911102881F2A
:101A50008827881F90911202292F220F97FB992720
:101A600090F94091140260911302822B0C940E0D98
:101A7000089561E00C94110D81E00C94390D809172
:101A8000110286958F73815009F481E00C94390D11
:101A9000E1E1F2E080818160808386958F730C9410
:101AA000390D8091110280FD0C94010C0C94480DAD
:101AB00060E00C94110D8091D80181608093D80171
:101AC0000E94BF19811104C00E94361A0E94AE0BF9
:101AD0000E94A40B60931102709312028093130270
:101AE000909314026E7761F40E94AE0B0E94A40BD7
:101AF0006093110270931202809313029093140268
:101B00008091110280FF04C086958F730C94580D4C
:101B100008956093110270931202809313029093C0
:101B200014020E94A80B8091110280FF04C08695C8
:101B30008F730C94390D0C94EC0B3BB1242F209532
:101B400023233BB1432B3FB7F894FC01680F791F67
:101B5000E617F70711F43FBF0895819198E04BB95C
:101B6000000000C087FF2BB9880F000000C000C034
:101B700000C02BB900C09A9591F7EACF2AB1242B67
:101B80002AB99B01220F331F620F731F0E949D0D04
:101B900087EC90E00197F1F700C00000089548E05D
:101BA0000C94BE0D90935601809355010895E091D9
:101BB0005501F0915601309721F00190F081E02D10
:101BC000099480E00895E0915501F0915601309715
:101BD00021F00280F381E02D09940895E0915501F0
:101BE000F0915601309739F022E0DC012C9304800B
:101BF000F581E02D0994089520915301309154010D
:101C00002817390771F09093540180935301E091A4
:101C10005501F0915601309721F00680F781E02DB3
:101C200009940895209151013091520128173907E4
:101C300071F09093520180935101E0915501F09120
:101C40005601309721F00084F185E02D0994089524
:101C500085B7806885BF85B7806885BF08950E9475
:101C6000280E0C942F0A81E008950E94F81A0E9411
:101C7000FE070E946E1B0E949E1F0C945B0DBF927C
:101C8000CF92DF92EF92FF920F931F93CF93DF9348
:101C9000CDB7DEB72A970FB6F894DEBF0FBECDBF23
:101CA0000E9496090E94330E882309F471C088E5CA
:101CB000C82E81E0D82E10E000E0B02E802F0E94C8
:101CC000D509E82EF601F1906F01F81609F45AC013
:101CD0008091D80181FD0E94DB0990E080E0FE2424
:101CE0002F2D30E0482FB901082E02C07595679559
:101CF0000A94E2F760FF41C08E83BF8281E090E0EA
:101D00006C0102C0CC0CDD1C4A95E2F72E2D30E0B0
:101D10002C213D21232B09F480E088870E94011BA0
:101D20008160782F9A8789874E815F8168858A854F
:101D30000E94E90EF801E85AFE4F80818C258083CD
:101D40000E94011D0E94D70D90915701891789F1BA
:101D50000E94D70D809357012A960FB6F894DEBFE4
:101D60000FBECDBFDF91CF911F910F91FF90EF90EC
:101D7000DF90CF90BF900C94F602019686309105CB
:101D800009F0B0CF0F5F1F4F0A30110509F095CF52
:101D90008FEF89838A831B820E94011B8160782FC9
:101DA0009D838C8349815A816B818D810E94E90ECC
:101DB000C7CF2A960FB6F894DEBF0FBECDBFDF9116
:101DC000CF911F910F91FF90EF90DF90CF90BF9038
:101DD0000895CF93DF93CDB7DEB72B970FB6F89466
:101DE000DEBF0FBECDBF4F83588769877A878B8749
:101DF0001E821D8285E0FE013796DE01119601905C
:101E00000D928A95E1F749815A816B817C818D81A0
:101E10009E812B960FB6F894DEBF0FBECDBFDF912B
:101E2000CF910C940E16FC01808191810C94DB18EB
:101E3000CF93C82F882309F4DCC08238C1F40E94F4
:101E4000D70D81FDD6C089E30E9409190E944D1962
:101E50002FEF81EE94E0215080409040E1F700C0E8
:101E6000000089E30E941019CF910C944D1983381A
:101E7000A1F40E94D70D80FDBCC083E50E94091922
:101E80000E944D192FEF81EE94E021508040904048
:101E9000E1F700C0000083E5E5CF8438A1F40E949B
:101EA000D70D82FDA6C087E40E9409190E944D1932
:101EB0002FEF81EE94E0215080409040E1F700C088
:101EC000000087E4CFCF8CEF8C0F813A48F48C2F41
:101ED0000E940F1F81118DC08C2F0E940919C4CF41
:101EE00080E28C0F883048F4C77081E001C0880F11
:101EF000CA95EAF70E948319B7CF8BE58C0F833020
:101F000068F481E890E0C53A31F083E890E0C63AA1
:101F100011F482E890E0CF910C94FC0D88E58C0FD1
:101F2000853108F05EC082EE90E0C83A09F456C0F0
:101F300089EE90E0C93A09F451C08AEE90E0CA3ABD
:101F400009F44CC085EB90E0CB3A09F447C086EB2E
:101F500090E0CC3A09F442C083EB90E0CB3BF1F146
:101F600084EB90E0CC3BD1F187EB90E0CD3AB1F13E
:101F70008CEC90E0C03B91F18DEC90E0CE3A71F1A9
:101F800083E891E0CF3A51F18AE891E0C13B31F129
:101F900082E991E0C23B11F184E991E0C33BF1F0A9
:101FA00081E292E0C43BD1F083E292E0C53BB1F024
:101FB00084E292E0C63B91F085E292E0C73B71F08B
:101FC00086E292E0C83B51F087E292E0C93B31F0F3
:101FD00090E080E0CA3B11F48AE292E0CF910C9449
:101FE000120EC03F30F08C2F0E940A1CCF910C942F
:101FF000F61CCF910895882309F452C0823871F4F9
:102000000E94D70D81FF4CC089E30E9409190E94EC
:102010004D1989E30E9410190C944D19833859F415
:102020000E94D70D80FF3CC083E50E9409190E94E1
:102030004D1983E5EFCF843859F40E94D70D82FF04
:102040002FC087E40E9409190E944D1987E4E2CF4E
:102050009CEF980F913AF0F290E2980F983050F47C
:10206000877091E001C0990F8A95EAF7892F0E9445
:102070008919D2CF9BE5980F933020F490E080E04F
:102080000C94FC0D98E5980F953120F490E080E0D9
:102090000C94120E803F20F00E94721C0C94F61CCF
:1020A0000895882321F00E9483190C944D190895F6
:1020B000882321F00E9489190C944D1908958F925C
:1020C0009F92AF92BF92DF92EF92FF920F931F9376
:1020D000CF93DF937C01D62FC72FFC01058102959A
:1020E0000F70128111110E94A2190E944619D82E58
:1020F000882371F0112331F180E28D0F883010F1C7
:1021000082E00E9430190E94461991E0D82ED9260B
:10211000BC2EB2949FE0B922EB2DF0E0EE56FF4EBC
:102120000C94AD27A410A410F410F4103B1163110B
:1021300042114211A511421140124012CA12D3128B
:102140004211F612D12CE4CF0C2F0F70C07F11F08A
:102150000295007F1123A9F0002359F080E28D0F32
:10216000883010F0D11109C0802F0E9483190E947D
:102170004D198D2F0E94180F14C0802F0E949419A2
:10218000F6CF8D2F0E94FB0F002359F080E28D0FB8
:10219000883010F0D11124C0802F0E9489190E942C
:1021A0004D19DD2009F429C20E94231980FD25C2A2
:1021B000F70112820E941D190E94A117C7010E94F7
:1021C00009130E941D19DF91CF911F910F91FF906C
:1021D000EF90DF90BF90AF909F908F900C94C217BC
:1021E000802F0E949A19DBCFFC2FFF70BF2EC07F7B
:1021F000C03219F0B29480EFB822DD2369F0D130FB
:1022000049F1112391F1002351F1F701858180FFFC
:10221000B0CF8F70858323C0112381F0011106C0D8
:102220000E94BC198B290E945110BBCF0130C1F70D
:102230000E94BC198B290E94B619B3CF011106C0A8
:102240000E94B9198B2D0E945810ABCF013009F4B0
:10225000A8CFF6CF112329F0063008F0A2CF8B2D9E
:10226000E2CF053008F09DCFEDCF002359F38D2F3D
:102270000E94FB0F96CF8C2F86958695837079F000
:102280008130B9F098E0B91609F49BC0B91608F48A
:1022900088CF86EF8B0D823008F493C082CF8D2FCC
:1022A0009C2F9370111102C090E080E00E94FC0D01
:1022B00078CF8D2F9C2F9370111102C090E080E099
:1022C0000E94120E6ECF112309F1D53F99F0D63F2F
:1022D000B9F0D43F49F480913A0290913B02816079
:1022E00090933B0280933A028D2F0E940A1C0E9419
:1022F000F61C57CF80913A0290913B028260F0CF5A
:1023000080913A0290913B028460EACFD53F89F0F8
:10231000D63FA9F0D43F49F480913A0290913B0214
:102320008E7F90933B0280933A028D2F0E94721C05
:10233000DECF80913A0290913B028D7FF2CF809167
:102340003A0290913B028B7FECCF8C2F837009F087
:102350004BC0111136C02D2F229526952770220FC4
:10236000220F6D2F6F70862E912CB12CA12C022E76
:1023700004C0880C991CAA1CBB1C0A94D2F760E00C
:1023800070E0CB01D4FF0FC06FE070E080E090E020
:1023900004C0660F771F881F991F2A95D2F7609592
:1023A000709580959095C695C695C370C23071F0B2
:1023B000A0F4682979298A299B29C13091F00E94CB
:1023C00053170E94D70D0E94F602EBCE6829792997
:1023D0008A299B290E946517F4CF0E945317C501D3
:1023E000B4010E944117EDCF8695112311F08C2F77
:1023F0008170882331F32D2F229526952770220F87
:10240000220F6D2F6F70862E912CB12CA12C022ED5
:1024100004C0880C991CAA1CBB1C0A94D2F760E06B
:1024200070E0CB01D4FF0FC06FE070E080E090E07F
:1024300004C0660F771F881F991F2A95D2F76095F1
:10244000709580959095C695C695C370C23051F031
:1024500080F4682979298A299B29C13071F00E946A
:102460001818AFCF682979298A299B290E942A1830
:10247000A8CF0E941818C501B4010E940618A1CF68
:10248000E0E2ED0FE53108F066C0F0E0E65BFD4EFE
:102490000C94AD275F125F125F125F125F125F1222
:1024A0005F125F125F125F125F125F125F125F12A4
:1024B0005F125F1270127E1285128C129612DF70FC
:1024C0008C2F8F71112331F00E94A1178D2F0E9444
:1024D0005110D8CE0E94C2178D2F0E945810D2CE14
:1024E000112341F0053008F0CDCE8C2F8F710E9462
:1024F000E517C8CE063008F0C5CEF7CF8C2F8F7108
:10250000112339F00E94A117BDCE8C2F8F7111239A
:10251000C9F30E94C217B6CE112329F08C2F8F71F8
:102520000E948C17AFCE0E948717ACCE112349F0C2
:10253000CF718C2F0E94A11763E08C2F0E94271966
:10254000A1CE81E00E943019023008F49BCE82E0D7
:102550000E94301997CE112349F0002321F08D2FCE
:102560000E94180F8FCE8C2F8F71CCCF002379F063
:10257000D93349F4FFEF27EE83E0F150204080404B
:10258000E1F700C000008D2F0E94FB0F7BCE8C2F47
:102590008F71BFCF4C2F4F706D2FC7010E944E051A
:1025A0000E94B716FECD1111FCCDCF70C230B1F034
:1025B00040F4CC2381F0C13009F064CE0E94CF1FDB
:1025C000F0CDC43089F068F080E0C53009F05ACE13
:1025D0000E943520E6CD0E94B71FE3CD0E940B205C
:1025E000E0CD0E941220DDCD85E0F2CF4C2F4F7060
:1025F0006D2FC7010E945105D4CDDF91CF911F915E
:102600000F91FF90EF90DF90BF90AF909F908F90D1
:1026100008950F931F93CF93DF93EC0198818981E5
:102620002B813C81232B39F08F3F19F481E09F3FB0
:1026300019F080E001C081E080FD17C0CE010E944A
:102640000E03882391F0688179818A810E94E518C0
:102650008C010E943C180E943E17B801CE01DF9108
:10266000CF911F910F910C945F10DF91CF911F912B
:102670000F9108950E94A2190E94B3190E94171980
:102680000E944D190E94951D0E94F61C90E080E06A
:102690000E94FC0D90E080E00C94120E0E949119B3
:1026A0000C943A130E94DB18E92FE295EF70E25088
:1026B000EE30E0F4F0E0E15AFC4E0C94AD276D13DF
:1026C0006D137613761378137613761376136D13D2
:1026D0006D137D13761376137D13803F19F020F46C
:1026E000803E20F481E00895843FE1F380E0089586
:1026F000803EC0F3813FD1F7F5CF93FB882780F967
:102700000895CF93DF9300D000D01F92CDB7DEB7EE
:102710000F900F900F900F900F90DF91CF91089531
:10272000CF93DF9300D000D000D0CDB7DEB7269690
:102730000FB6F894DEBF0FBECDBFDF91CF910895E5
:102740001F93CF93DF93C091630116E080916401E2
:102750008C1304C0DF91CF911F910895D0E01C9F8E
:10276000F0011D9FF00D1124EB59FE4F4081518166
:1027700062817381848195810E9490132196C77034
:10278000E5CF40919501509196016091970170912C
:1027900098018091990190919A010C9490131F9344
:1027A000CF93DF9380919A01807FD1F4809197013C
:1027B0008823B1F080916301D0916401B0919501BB
:1027C000C09196014091980150919901A1E0BF3FBD
:1027D00009F0A0E0BA016095709516E0D81304C026
:1027E000DF91CF911F91089521E04115510521F00E
:1027F0002A2FCF3F09F020E090E020FD38C0189F3D
:10280000F001199FF00D1124EB59FE4F21812C137B
:102810002EC020812B132BC02281211128C023819F
:1028200034812417350700F1241B350B283C310572
:10283000F0F420919A012F70206120939A0126E0F4
:10284000289FF001299FF00D1124E659FE4F808149
:102850008F708061808385E991E00E940913DF9188
:10286000CF911F910C94A013260F371FDFCF019635
:102870008770B4CFAF92BF92CF92DF92EF92FF9268
:102880000F931F93CF93DF93CDB7DEB761970FB64A
:10289000F894DEBF0FBECDBF8C0185E0F801DE01EC
:1028A0001D9601900D928A95E1F7D8014C911196F1
:1028B0005C9111971296EC90309195016091960180
:1028C000809198019091990121E0009731F06F3F3C
:1028D00019F421E03F3F09F020E0B22FB170BB2E88
:1028E00020FD80C1F801C380D480A0909701AA2068
:1028F00009F427C1C816D906D0F1D601A81BB90B17
:10290000CD01FF24F394883C910508F0F12C8091CF
:102910009A01982F907FFF2009F4CEC0911187C0B3
:10292000FE2C651329C0341327C0E11025C08F7019
:10293000806180939A010E94C11385E991E00E9411
:10294000091380919A01F80185838F2D61960FB646
:10295000F894DEBF0FBECDBFDF91CF911F910F91D5
:10296000FF90EF90DF90CF90BF90AF90089580954B
:1029700090958C0D9D1DC5CF81E0CD2831F05F3F36
:1029800019F481E04F3F09F080E080FD24C081E030
:102990008E25F82FF170DF2E80FF3FC080916301FC
:1029A0002091640136E0821318C04D875E878D85C3
:1029B0009E850E94DB18292F22952F70223008F166
:1029C000243030F59F7009F1D80115969C91907FC5
:1029D000E1F4FB2CBACF80E0DCCF90E0389FF0012F
:1029E000399FF00D1124EB59FE4F6181561306C03B
:1029F0006081461303C062816E110FC0019687701B
:102A0000D2CF9F7011F0882321F3805E883008F3C5
:102A1000C8010E940913BD2CDCCFEE2009F495CF2C
:102A200080919A01816080939A01F12C8ECF651379
:102A300014C0341312C0E11010C0F8018583C8011E
:102A40000E94091386E0F801A5E9B1E001900D921A
:102A50008A95E1F70E94C11378CF4D875E878D85F7
:102A60009E850E945213882319F1EE2009F180916E
:102A70009A01803270F0209195013091960138874B
:102A80002F831986DB86CA868C87CE0107960E9423
:102A9000091386E0F801A5E9B1E001900D928A954D
:102AA000E1F70E94CF130E94C113FF24F3944DCF8E
:102AB000C8010E940913F9CF911113C07C2DD98A46
:102AC000C88A6E2D89890E94811385E991E00E9450
:102AD000091386E0E5E9F1E0DF011D928A95E9F747
:102AE000B9CF651312C0341310C0E1100EC0F80145
:102AF0008583C8010E940913E5E9F1E086E0DF0162
:102B00001D928A95E9F7FA2C20CF4D875E878D8537
:102B10009E850E945213882359F2EE2049F280913B
:102B20009A01803208F4B5CF209195013091960139
:102B30003A8329831B82DD82CC828E83CE0101966B
:102B4000A6CFC816D90638F1F601E81BF90BCF015C
:102B5000F12C883C910508F03DC0FE2CEE2009F4D4
:102B6000A7CF651326C0341324C080919A0180FD3D
:102B700017C0982F907FA1F0D80115968C931597C8
:102B8000903F09F45CCF982F907F905F8F70892BD6
:102B900015968C9354CF809590958C0D9D1DD8CF14
:102BA00086E0F801A5E9B1E001900D928A95E1F780
:102BB000CCCE4D875E878D859E850E9452138111F4
:102BC00068CF80919A01816080939A01C8010E9428
:102BD0000913BBCE7C2DD98AC88A6E2D89890E94A3
:102BE000811377CFEE2009F463CF4D875E878D8503
:102BF0009E850E945213F82E882309F459CF86E04F
:102C0000F801A5E9B1E001900D928A95E1F785E917
:102C100091E00E94130F0E94CF131CCF1F93CF93FC
:102C2000DF93CDB7DEB72C970FB6F894DEBF0FBE9B
:102C3000CDBF4F83588769877A878B879C87CE0162
:102C400007960E943A14882309F442C09F81888520
:102C50002A853B85232B39F08F3F19F481E09F3F74
:102C600019F080E001C081E080FD08C04F815885E7
:102C700069857A858B859C850E94901316E08091EA
:102C8000630190916401891709F467C0819FC001B5
:102C900011248B599E4F0E943A14882309F45DC079
:102CA000E09163011E9FF0011124EB59FE4F40811A
:102CB000518162817381848195810E9490138091FA
:102CC000630190E001968770992780936301D7CFC5
:102CD00086E0FE013796DE01119601900D928A95ED
:102CE000E1F79F8188852A853B85232B39F08F3F2B
:102CF00019F481E09F3F19F080E001C081E080FD80
:102D0000BDCF2091640130E0C901019687709927F9
:102D1000409163014817190699F096E0929FD001FF
:102D2000939FB00D1124AB59BE4FFE013196019017
:102D30000D929A95E1F7809364010E94A0139ECFB3
:102D40000E944E13109264011092630186E0E5E93F
:102D5000F1E0DF011D928A95E9F72C960FB6F89401
:102D6000DEBF0FBECDBFDF91CF911F910895EF92CF
:102D7000FF920F931F93CF93DF938C01892B81F0E8
:102D8000F12CEE24E394E8012196F8018491843734
:102D900070F4843008F05FC08130B1F08230A1F16E
:102DA000DF91CF911F910F91FF90EF90089585379C
:102DB00009F44CC008F43DC09CE7980F903780F7A9
:102DC0008F770E94FB0F49C00E5F1F4FFE01849159
:102DD00090E2980F983060F48770FE2D01C0FF0FCD
:102DE0008A95EAF78F2F0E94A5190E944D1902C0FB
:102DF0000E94180F8F2D815030F2EFE9FFE03197DC
:102E0000F1F700C00000F7CF0E5F1F4FFE01849165
:102E100090E2980F983050F48770FE2D01C0FF0F9C
:102E20008A95EAF78F2F0E94AB19DFCF0E94FB0F24
:102E3000E1CF0E5F1F4FFE01C491C150D8F28FE960
:102E40009FE00197F1F700C00000F7CF0E5F1F4F22
:102E5000FE01F490CFCF0E94180F8E01CBCF0895C2
:102E60000C942F170E9430176093C7017093C8010C
:102E70008093C9019093CA010C943A1308950C945D
:102E800032170F931F930091C7011091C801209131
:102E9000C9013091CA01602B712B822B932B1F919A
:102EA0000F910C9432170F931F930091C70110914B
:102EB000C8012091C9013091CA0160237123822386
:102EC00093231F910F910C9432170F931F9300912E
:102ED000C7011091C8012091C9013091CA01602732
:102EE0007127822793271F910F910C9432170C940E
:102EF0002F170C9477170E9479176093C301709372
:102F0000C4018093C5019093C6010C943A1360E00C
:102F100070E0CB010C947B170F931F9341E050E0BE
:102F200060E070E08A019B0104C0000F111F221FA6
:102F3000331F8A95D2F7C901B8011F910F910C94E4
:102F40007B170F931F9341E050E060E070E004C0F6
:102F5000440F551F661F771F8A95D2F78091C301D2
:102F60009091C401A091C501B091C6018A019B0155
:102F7000082B192B2A2B3B2BC901B8011F910F914C
:102F80000C947B170F931F9341E050E060E070E0DA
:102F900004C0440F551F661F771F8A95D2F7CB01D7
:102FA000BA0160957095809590950091C30110913C
:102FB000C4012091C5013091C60160237123822391
:102FC00093231F910F910C947B170F931F9341E054
:102FD00050E060E070E004C0440F551F661F771F8B
:102FE0008A95D2F78091C3019091C401A091C50147
:102FF000B091C6018A019B01082719272A273B2780
:10300000C901B8011F910F910C947B170F931F9367
:103010000091C3011091C4012091C5013091C601F6
:10302000602B712B822B932B1F910F910C947B178C
:103030000F931F930091C3011091C4012091C5010A
:103040003091C60160237123822393231F910F9136
:103050000C947B170F931F930091C3011091C4012F
:103060002091C5013091C6016027712782279327DF
:103070001F910F910C947B170895292F220F920F07
:10308000990F890F982F977071E001C0770F9A956B
:10309000EAF786958695869525E0829FC0011124E2
:1030A00050E040E0A62FB0E0FC01E40FF51FE5562C
:1030B000FE4F60819D01042E02C0369527950A942B
:1030C000E2F72170219526272723262720834F5FAB
:1030D0005F4F4530510541F70895292F220F290FE1
:1030E000220F820F982F977086958695869545E0DA
:1030F000849F9001112470E060E080E0F901E60F08
:10310000F71FE556FE4F408150E0092E02C056954C
:1031100047950A94E2F741705527062E01C0440FE7
:103120000A94EAF7842B6F5F7F4F6530710531F7A2
:103130000895BF92CF92DF92EF92FF920F931F9369
:10314000CF93DF938C01C090C301D090C401E09075
:10315000C501F090C6018091C7019091C801A0916E
:10316000C901B091CA01C82AD92AEA2AFB2ACFE1AB
:10317000D0E0BC2ED701C6010C2E04C0B695A79591
:10318000979587950A94D2F780FD0EC0219788F70E
:10319000B12C8B2DDF91CF911F910F91FF90EF906C
:1031A000DF90CF90BF900895B8018C2F0E946E05DC
:1031B000019761F3EECFCF93DF93EC010E94991852
:1031C000BE01DF91CF910C946E051F93CF93DF93D7
:1031D000EB0190916201992331F0CB01DF91CF9106
:1031E0001F910C94DB18882379F0CB010E94991869
:1031F000182F682FCE010E943D18BE01812FDF914C
:10320000CF911F910C946E05CB010E946D18182F61
:10321000F4CF682F80910101909102010C946B1AF8
:10322000682F80910101909102010C946D1A809198
:103230000101909102010C946F1A8091CB01859548
:103240008595859508958091CB018770089598E0C4
:10325000899F90011124622B6093CB010C94A117DC
:103260009091CB01809589238093CB01282F2770E3
:1032700061F4282F082E000C330B9217130629F047
:103280008595859585950C94C21708959091CB01ED
:10329000977081E009F480E00895E0910101F091D8
:1032A00002018091D7018083E0910101F091020138
:1032B00080819091D601892B8083E0910101F0916A
:1032C000020180819091D501892B80839091CC015E
:1032D000992381F0E0910101F09102018081892B15
:1032E000808380910101909102010E94381A81111E
:1032F0001092CC0180910101909102010C94E30D98
:103300008091D70108959091D701892B8093D7019F
:103310000895982F90958091D70189238093D701A4
:1033200008951092D70108959091D601892B80932A
:10333000D6010895982F90958091D6018923809386
:10334000D60108951092D60108959091D501892B48
:103350008093D5010895982F90958091D501892368
:103360008093D50108951092D50108958093CC01E2
:1033700008951092CC0108958091CC01089590E0B9
:1033800080E00E94DB2721E08D3E9E4F09F020E087
:10339000822F089582E090E00C94CD2783E090E0A6
:1033A0000C94CD2784E090E00C94CD27682F84E026
:1033B00090E00C94E12786E090E00C94CD27682FF4
:1033C00086E090E00C94E127AB01BC018FE090E037
:1033D0000C94F327AB01BC0183E190E00C94F3273C
:1033E00060E070E0CB010C94EA1960E070E0CB0182
:1033F0000E94E4190C94F0196DEE7EEF90E080E0ED
:103400000E94FF2760E082E090E00E94E12760E0F8
:1034100083E090E00E94E1271092C7011092C8015A
:103420001092C9011092CA0160E084E090E00E940D
:10343000E12760E085E090E00E94E12760E086E01F
:1034400090E00E94E1276FEF87E090E00E94E12783
:1034500040E050E0BA0188E090E00E94F32760E08D
:103460008DE090E00E94E1270C94F5190C94FC1972
:10347000FC01329697E080E0915009F40895219183
:103480002223D1F38F5FF8CF9C01FC0132969FEF8E
:1034900080E04191461751F09F3F19F4411101C05E
:1034A000982F8F5F8630A9F79F3F09F40895290F61
:1034B000311D97FD3A95F90162830895FC0132961A
:1034C00008962191261303C0DF0111971C92E8177B
:1034D000F907B9F708950C94441A0C945E1A0296F1
:1034E00026E0FC0111922A95E9F7089508950895C0
:1034F0000C94771A0E94781A80914702843061F107
:103500001092D90188E190E020E40FB6F894A895D4
:10351000809360000FBE2093600080E00E948202D2
:1035200080E00E94F6020E94781A83B7817F84604F
:1035300083BF83B7816083BF7894889583B78E7F7C
:1035400083BF0FB6F894A89580916000886180933E
:103550006000109260000FBE08950895CF930E94FE
:10356000761A0E9496090E94AD1AC0E08C2F0E9424
:10357000D509811105C0CF5FCA30C1F7CF91089539
:1035800081E0FCCF08950C94C21A0E944E130E9451
:103590009E1F0E94D70D0E94F6020C94C31A1F9220
:1035A0000F920FB60F9211248F939F93AF93BF93F7
:1035B0008091D901811113C080913C0290913D020C
:1035C000A0913E02B0913F024196A11DB11D809392
:1035D0003C0290933D02A0933E02B0933F02BF9104
:1035E000AF919F918F910F900FBE0F901F901895E4
:1035F00082E084BD93E095BD9AEF97BD80936E0005
:1036000008952FB7F89480913C0290913D02A091CB
:103610003E02B0913F022FBF0895CF92DF92EF920A
:10362000FF920F931F932FB7F89440913C02509153
:103630003D0260913E0270913F022FBF6A017B0103
:10364000EE24FF248C0130E020E0C016D106E20613
:10365000F30650F0481B590BCA011F910F91FF90C0
:10366000EF90DF90CF90089541505109F3CF7894B7
:103670001F920F920FB60F9211248F939F93AF93C7
:10368000BF9380913C0290913D02A0913E02B09187
:103690003F020196A11DB11D80933C0290933D0213
:1036A000A0933E02B0933F02BF91AF919F918F9143
:1036B0000F900FBE0F901F90189587E797E7909394
:1036C00001088093000888E19AE00FB6F894A89565
:1036D000809360000FBE90936000FFCF0E94BF19DF
:1036E000811102C00E94361A0E94CA198093D80123
:1036F0000E94D21990E090934102809340020E9470
:10370000CE19682F70E090E080E00C943F17809114
:10371000DC0180FF12C06091060185E0689FB00166
:103720001124759567957595679560387105A8F5AD
:1037300061157105A1F1862F089581FF09C060917F
:10374000060185E0689FB001112475956795EDCF5E
:1037500082FF07C06091060185E0689FB0011124D7
:10376000E4CF2091DD012223A9F090910501609121
:10377000060185E0689FB00111242917B0F6269F45
:10378000A001279F500D1124692F70E0CA010E94EB
:103790007727CBCF65E070E0CECF8FE7089581E04B
:1037A00008958091DC0180FF0CC06091040170E0FD
:1037B00075956795759567956115710549F1862F22
:1037C000089581FF06C06091040170E075956795CA
:1037D000F3CF6091040182FD0BC09091DD0199232C
:1037E000A1F06091030180910401961738F0682FD1
:1037F00070E06038710500F38FE70895899FC0017C
:10380000112470E00E947727F4CF61E070E0D7CFF9
:1038100081E00895803F31F40E94871B8195809359
:10382000E1010895813F19F40E94871BF8CF823F80
:1038300031F40E94871B81958093E0010895833FB6
:1038400019F40E94871BF8CF893F29F40E94D11BED
:103850008093E20108958A3F21F40E94D11B819553
:10386000F7CF8B3F31F40E94D11B81958093E30108
:1038700008958C3F19F40E94D11BF8CF843F31F496
:103880008091DF0181608093DF010895853F21F4FD
:103890008091DF018260F7CF863F21F48091DF01C4
:1038A0008460F1CF873F21F48091DF018860EBCF06
:1038B000883F21F48091DF018061E5CF8D3F31F4B5
:1038C0008091DC0181608093DC0108958E3F21F4BA
:1038D0008091DC018260F7CF8F3FB9F78091DC01E6
:1038E0008460F1CF803FC1F48091E10187FD1092A7
:1038F000E1018091E00181110EC08091E10181110F
:103900000AC08091E201811106C08091E30181111A
:1039100002C01092DD010895813F29F48091E101F8
:1039200018162CF3E6CF9091E001823F29F497FF1F
:10393000E0CF1092E001DDCF833F19F41916CCF3EC
:10394000D8CF893F39F48091E201181694F610928D
:10395000E201CFCF8A3F29F48091E20187FFC9CFEE
:10396000F6CF8B3F39F48091E30187FFC2CF1092ED
:10397000E301BFCF8C3F29F48091E3011816BCF31B
:10398000B8CF843F31F48091DF018E7F8093DF01D7
:10399000B0CF853F21F48091DF018D7FF7CF863F47
:1039A00021F48091DF018B7FF1CF873F21F480915B
:1039B000DF01877FEBCF883F21F48091DF018F7E8D
:1039C000E5CF8D3F31F48091DC018E7F8093DC0167
:1039D00090CF8E3F21F48091DC018D7FF7CF8F3F18
:1039E00009F087CF8091DC018B7FF0CF8EED91E0E5
:1039F0000E94EE0D0E94011B9093DB018093DA017F
:103A000008951F93CF93DF938091DA019091DB01AA
:103A10000E940D1BAC019091DD012091070130E067
:103A2000911106C0209108018AE0289F900111247D
:103A30004217530780F08091E001D091E10110918D
:103A4000E201C091E30181110AC0D1116AC01111D4
:103A500068C0C11166C0DF91CF911F9108959F3F4B
:103A600019F09F5F9093DD01181624F40E94871BC4
:103A70008093E0018091E00187FF05C00E94871BD1
:103A800081958093E0011D1624F40E94871B80938A
:103A9000E1018091E10187FF05C00E94871B8195AC
:103AA0008093E1013091E0013323C1F02091E101E5
:103AB0002223A1F045EB3403C0011124892F911179
:103AC00001C081E08093E00145EB240390011124C3
:103AD000832F311101C081E08093E101111624F49C
:103AE0000E94D11B8093E2018091E20187FF05C013
:103AF0000E94D11B81958093E2011C1624F40E9440
:103B0000D11B8093E3018091E30187FF05C00E94F0
:103B1000D11B81958093E301DF91CF911F910C948C
:103B2000F61C9F3F09F09DCFAECF86E0EEEDF1E0B1
:103B3000DF011D928A95E9F71092DD011092DC01F8
:103B40000895833081F128F4813059F08230D1F02A
:103B50000895853009F449C0B8F1863009F456C09B
:103B6000089580910801482F460F5527551F4F3F54
:103B7000510524F4680F6093080108958FEF809336
:103B80000801089580910701482F460F5527551FBA
:103B90004F3F510524F4680F6093070108958FEF9C
:103BA00080930701089580910601482F460F5527FD
:103BB000551F4F3F510524F4680F60930601089587
:103BC0008FEF80930601089580910501482F460FDD
:103BD0005527551F4F3F510524F4680F6093050189
:103BE00008958FEF80930501089580910401482F77
:103BF000460F5527551F4F3F510524F4680F60931A
:103C0000040108958FEF80930401089580910301CA
:103C1000482F460F5527551F4F3F510524F4680F75
:103C20006093030108958FEF80930301089583301B
:103C300011F128F4813049F0823091F008958530F7
:103C400081F120F18630C1F1089580910801681753
:103C500020F4861B809308010895109208010895AE
:103C600080910701681720F4861B8093070108954F
:103C700010920701089580910601681720F4861BB1
:103C80008093060108951092060108958091050120
:103C9000681720F4861B8093050108951092050192
:103CA000089580910401681720F4861B8093040115
:103CB000089510920401089580910301681720F47B
:103CC000861B8093030108951092030108950F93BA
:103CD0001F9341E050E060E070E08A019B0104C066
:103CE000000F111F221F331F8A95D2F7C901B80197
:103CF0000E943F171F910F910C944E138732A8F525
:103D00008E3108F07BC08E3009F46DC058F48730D6
:103D100009F45AC08B3009F44BC0863009F44AC00C
:103D200080E00895863109F443C068F48031C1F71A
:103D30009091D801892F877F93FF88608093D80165
:103D400083FD0FC035C0893199F18B3149F79091CE
:103D5000D801892F8D7F91FF82608093D80181FFE8
:103D600027C08091D80181603BC0883309F150F4AD
:103D7000893221F0853311F0873291F680E00E947C
:103D8000671E16C08334D1F320F48A3348F2895376
:103D9000F6CF883429F60E944E132FEF83ED90E37F
:103DA000215080409040E1F700C000000E945D1B60
:103DB00081E008958091D801817F8E7F8093D80122
:103DC00081E08093E50108959091D801892F8E7F3D
:103DD00090FF81608093D80180FDEACF897F877F43
:103DE0008093D801E5CF9091D801892F8B7F92FFE6
:103DF00084608093D80182FDB4CFDACF8D51BFCFDC
:103E000080E008950C94001F8E518A3030F4E82F22
:103E1000F0E0EC5DFE4F8081089580E00895CF933F
:103E2000C82F8091E5018130C9F030F08230D9F19E
:103E30001092E50180E010C0E0910101F0910201D3
:103E400080818232B9F78C2F0E94001F81111BC024
:103E50008C2F0E947E1E8170CF910895E091010108
:103E6000F09102018081823271F38C2F0E94021F37
:103E7000811110C0C43181F048F4CB3059F0C03109
:103E800071F080E0E8CF81E090E0E5CFC93221F029
:103E9000C833B9F781E0DFCF1092E501F2CF82E0BD
:103EA0008093E501F7CFC93219F188F4C43101F1EB
:103EB00020F4C73081F181E0CFCF82EE8C0F8630C5
:103EC000D0F78C2F0E94041F8093E401F4CFCE34EE
:103ED00001F140F46AE0CB3471F78091E4010E9473
:103EE000A11DE9CFC13579F061E0C235B1F3E3CF6F
:103EF0008091E401882319F01092E401DCCF81E085
:103F00008093E501A9CF61E08091E4010E94171E32
:103F1000D2CF6AE0F9CF8EE18093080182E38093EB
:103F200007018AE08093060184E18093050188E01F
:103F30008093040188E280930301BDCF0E94BF19E2
:103F4000811102C00E94361A0E94DB19809342023E
:103F50008C3020F081708A6080934202809142020E
:103F600080FF03C086950C94820280E0FCCF809194
:103F70004202982F9695953030F49F5F990F81708B
:103F8000892B809342028091420281608093420299
:103F90000E94DF198091420286950C9482028091E2
:103FA0004202982F9E7F79F08250809342028E7F4A
:103FB00091E009F490E08091420290FB80F98093B7
:103FC00042020E94DF198091420286950C9482027F
:103FD0008091420280FD11C0816080934202813055
:103FE00019F483E080934202809142020E94DF191B
:103FF0008091420286950C9482020895809142023B
:1040000080FF08C08E7F809342020E94DF1980E00B
:104010000C94820208958091420280FD0C94FE1F50
:104020000C94E81F90914202892F86958F5F8F77BD
:1040300091708630B8F4880F892B8093420280916A
:1040400042028E7F91E009F490E08091420290FB61
:1040500080F9809342020E94DF1980914202869586
:104060000C94820290934202EACF863008F085E0F9
:10407000982F990F809142028170892B8093420280
:104080008E7F91E009F490E08091420290FB80F9EC
:10409000809342020E94DF198091420286950C941F
:1040A000820280914202869508958091EE010895E2
:1040B0000F931F93CF93DF9300D01F92CDB7DEB73E
:1040C0008C010E94A422823011F0843021F584E01A
:1040D00089831B830A8382E08093E9008FEF9091AC
:1040E000E800815095FD06C095ED9A95F1F7000026
:1040F0008111F5CF8091E80085FF0DC050E040E0D0
:1041000063E070E0CE0101960E94C1228091E80038
:104110008E778093E8000F900F900F90DF91CF91F2
:104120001F910F910895CF93DF9300D01F92CDB7C9
:10413000DEB720914702243031F523E029838058EF
:1041400091099B838A8382E08093E9008FEF9091AD
:10415000E800815095FD06C095ED9A95F1F70000B5
:104160008111F5CF8091E80085FF0DC050E040E05F
:1041700063E070E0CE0101960E94C1228091E800C8
:104180008E778093E8000F900F900F90DF91CF9182
:104190000895CF93DF93EC010E94A422823011F0A6
:1041A0008430F9F482E08093E9008FEF9091E80089
:1041B000815095FD06C095ED9A95F1F700008111AB
:1041C000F5CF8091E80085FF0CC050E040E066E04C
:1041D00070E0CE010E94C1228091E8008E7780932A
:1041E000E800DF91CF910895CF93DF93EC010E9417
:1041F000A422823011F0843039F581E08093E90007
:104200008FEF9091E800815095FD06C095ED9A954D
:10421000F1F700008111F5CF8091E80085FF14C00F
:1042200050E040E068E070E0CE010E94C122809141
:10423000E8008E778093E80088E0FE01A6EEB1E00A
:1042400001900D928A95E1F7DF91CF9108958091C9
:104250004602811109C00E9451240E94AE2480911F
:10426000E20084608093E20008951092460208956F
:10427000089508950C94C51A42E061EC81E00E9413
:10428000CF2342E261EC82E00C94CF23809149027B
:10429000833009F45DC030F48130B1F1823009F42B
:1042A00099C008958A3009F485C08B3009F46BC039
:1042B000893009F04CC080914802813209F047C032
:1042C00080914C0290914D02029708F040C080917D
:1042D000E800877F8093E8008091E80082FF33C088
:1042E00080911301882329F08091F1008B7F813028
:1042F00021F48091F1008093EE018091E8008B77AA
:104300008093E8000C94032480914802813AF9F4E8
:104310008091E800877F8093E80080914C02909123
:104320004D02892B61F468E086EE91E070E00E9416
:1043300010238091E8008B778093E800089560E077
:1043400090E080E0F3CF809147028111C5CF0895BE
:1043500080914802813AD9F780914C0290914D02A8
:10436000892BA9F78091E800877F8093E8008091EE
:10437000E80080FFFCCF809113018093F1008091D1
:10438000E8008E77BDCF80914802813201F780919D
:104390004C0290914D02892BD1F68091E800877FE5
:1043A0008093E8000E94032480914A0280931301C5
:1043B0000C944E1380914802813249F68091E800B6
:1043C000877F8093E8000E94032480914B028093B2
:1043D000EF01089580914802813A09F0B8CF8091A9
:1043E000E800877F8093E8008091E80080FFFCCFA1
:1043F0008091EF01C2CF84B7877F84BF0FB6F89456
:10440000A8958091600088618093600010926000A0
:104410000FBE80E880936100109261000E942F0E11
:104420000E9451240E94AE248091E2008460809317
:10443000E20078940E9437270E94350E89E091E0CF
:104440000E94D20D80914702853019F00E943F0EE4
:10445000F9CF0E947A1A80914502882399F30E942D
:10446000AE1A882379F30E94AB22ECCF0C94382249
:10447000292F33272330310571F158F421303105CC
:10448000E9F02230310511F190E080E030E020E0E9
:1044900019C021323105C1F122323105A9F780E47A
:1044A00090E02EE134E06115710561F085E890E05F
:1044B00029E933E06130710529F0E6CF82E190E02F
:1044C00027E833E0FA013183208308958BE390E0FD
:1044D0002CE433E0F7CF99278130910579F040F053
:1044E0008230910571F0039779F6E4E1F3E002C0C0
:1044F000E8E4F3E0849190E09F01E4CFE8E3F3E0A7
:10450000F9CFEAE1F3E0F6CF89E090E02EE533E081
:1045100061157105B9F289E090E027E733E0613079
:10452000710581F2B1CF0895CF93C82F0E949322D5
:10453000C093F001CF91089580914702843011F02B
:1045400081E0089582E008958091F001811102C018
:104550000C949C22089580E189BD82E189BD09B453
:1045600000FEFDCF8091D8008F7D8093D800809190
:10457000E00082608093E0008091E00081FDFCCF4C
:104580000895AF92BF92CF92DF92FF920F931F9345
:10459000CF93DF936C01EB018A010E942224F82E55
:1045A000811123C00115110539F0F8018081918135
:1045B000C81BD90BC80ED91EB12CA12C2097A9F06D
:1045C0008091E80085FD22C08091E8008E7780937D
:1045D000E80001151105A1F0F80180819181A80E74
:1045E000B91EB182A08285E0F82E8F2DDF91CF9188
:1045F0001F910F91FF90DF90CF90BF90AF900895E3
:104600000E9422248823D1F2F82EEFCFF601819167
:104610006F018093F1002197FFEFAF1ABF0ACECF51
:10462000FC0180914E0290914F0286179707A0F0EF
:104630006115710529F49091E8009E779093E80048
:1046400090E06115710551F4911108C08091E80066
:1046500082FF35C080E00895BC01F2CF809147020F
:104660008823C9F18530C9F18091E80083FD31C00C
:104670008091E80082FDEACF8091E80080FFE1CFE1
:104680002091F3008091F200322F282F61157105DF
:1046900019F02830310558F091E02830310509F043
:1046A00090E02091E8002E772093E800CACF819116
:1046B0008093F100615071092F5F3F4FE7CF8091E8
:1046C0004702882341F0853041F08091E80083FF64
:1046D000BDCF81E0089582E0089583E00895FC0154
:1046E00080914E0290914F0286179707A0F06115B6
:1046F000710529F48091E8008E778093E80090E0BE
:104700006115710551F4911108C08091E80082FF94
:1047100036C080E00895BC01F2CF80914702882323
:10472000D1F18530D1F18091E80083FD32C08091D4
:10473000E80082FDEACF8091E80080FFE1CF209180
:10474000F3008091F200322F282F6115710519F0C6
:104750002830310558F091E02830310509F090E01B
:104760008091E8008E778093E800CACF849180938F
:10477000F1003196615071092F5F3F4FE6CF809174
:104780004702882341F0853041F08091E80083FFA3
:10479000BCCF81E0089582E0089583E00895982FCA
:1047A000973028F08F708093E90081E0089590930E
:1047B000E900242F762F50E0981731F07091EC002B
:1047C0002091ED005091F00021FD02C09F5FE8CFE5
:1047D0003091EB003E7F3093EB003091ED003D7F58
:1047E0003093ED003091EB0031603093EB0070932B
:1047F000EC002093ED005093F0002091EE0027FD97
:10480000E5CF80E008958091480287FF13C0809132
:10481000E80082FF06C08091E8008B778093E80073
:1048200004C0809147028111F2CF08958091470220
:104830008823D9F38091E80080FFF8CF8091E800C9
:104840008E77ECCF2091E4003091E50085E69091E1
:10485000EC0090FF06C09091E80090FF06C080E059
:1048600008959091E80092FDFACF90914702992324
:1048700091F0953091F09091EB0095FD10C0409132
:10488000E4005091E5002417350709F381509A019F
:10489000F1F684E0089582E0089583E0089581E0D0
:1048A00008950E94BF240E94C724E0EEF0E08081BA
:1048B00081608083E8EDF0E080818F77808319BC90
:1048C000A7EDB0E08C918E7F8C9380818F7E80836A
:1048D0001092460208950F931F93CF93DF930E9487
:1048E000BF240E94C724C8EDD0E088818F778883D9
:1048F00088818068888388818F7D888319BC109225
:10490000470210924302109245021092440200EEB8
:1049100010E0F80180818B7F8083888181608883AB
:1049200042E060E080E00E94CF23E1EEF0E0808191
:104930008E7F8083E2EEF0E08081816080838081E1
:1049400088608083F80180818E7F80838881806188
:104950008883DF91CF911F910F910895E8EDF0E0EA
:1049600080818F7E8083E7EDF0E0808181608083AD
:1049700084E082BF81E0809346020C946B24E8EDD2
:10498000F0E080818E7F80831092E2000895109283
:10499000DA001092E10008951F920F920FB60F9265
:1049A00011242F933F934F935F936F937F938F9334
:1049B0009F93AF93BF93EF93FF938091E10082FFAA
:1049C0000BC08091E20082FF07C08091E1008B7FE5
:1049D0008093E1000E9436278091DA0080FF19C0A1
:1049E0008091D80080FF15C08091DA008E7F80937F
:1049F000DA008091D90080FF94C080E189BD82E116
:104A000089BD09B400FEFDCF81E0809347020E947A
:104A100027218091E10080FF19C08091E20080FF92
:104A200015C08091E2008E7F8093E2008091E200C9
:104A300080618093E2008091D80080628093D800EA
:104A400019BC85E0809347020E9439218091E100E2
:104A500084FF29C08091E20084FF25C080E189BDE8
:104A600082E189BD09B400FEFDCF8091D8008F7D21
:104A70008093D8008091E1008F7E8093E100809147
:104A8000E2008F7E8093E2008091E200816080935B
:104A9000E20080914302882309F449C084E08093B6
:104AA00047020E943A218091E10083FF29C0809152
:104AB000E20083FF25C08091E100877F8093E100C1
:104AC00082E080934702109243028091E1008E7F42
:104AD0008093E1008091E2008E7F8093E2008091DC
:104AE000E20080618093E20042E060E080E00E94AA
:104AF000CF238091F00088608093F0000E943821DD
:104B0000FF91EF91BF91AF919F918F917F916F91A5
:104B10005F914F913F912F910F900FBE0F901F907B
:104B2000189519BC109247020E94352172CF8091CE
:104B3000E30087FD02C081E0B2CF83E0B0CF1F92D7
:104B40000F920FB60F9211242F933F934F935F93C1
:104B50006F937F938F939F93AF93BF93CF93EF9375
:104B6000FF93C091E900CF708091EC001092E900B2
:104B70008091F000877F8093F00078940E94DB257D
:104B80001092E9008091F00088608093F000C0935B
:104B9000E900FF91EF91CF91BF91AF919F918F91DC
:104BA0007F916F915F914F913F912F910F900FBE29
:104BB0000F901F9018951F93CF93DF93CDB7DEB75B
:104BC000AA970FB6F894DEBF0FBECDBFE8E4F2E0BF
:104BD0008091F100819322E0E035F207C9F70E944D
:104BE00046218091E80083FF44C080914802909163
:104BF00049029A3008F03DC0E92FF0E0EE5FF94D30
:104C00000C94AD270C2632263926322639269026DA
:104C1000B226392609271627803889F0823849F5C7
:104C200080914C028F70873020F58093E90080914D
:104C3000EB0085FB882780F91092E90006C080917F
:104C4000440290914502911182609091E800977F13
:104C50009093E8008093F1001092F1008091E800B9
:104C60008E772DC0282F2D7F21F48823D1F082301C
:104C700059F18091E80083FF0AC08091E800877FA6
:104C80008093E8008091EB0080628093EB00AA960D
:104C90000FB6F894DEBF0FBECDBFDF91CF911F914D
:104CA000089580914A02813021F7933009F080E025
:104CB000809345021092E9008091E800877F8093FD
:104CC000E8000E940324D5CF80914A028111F2CFDF
:104CD00080914C028F702FEF280F263050F6809372
:104CE000E9002091EB0020FFE5CF933031F4809173
:104CF000EB0080628093EB00DDCF9091EB00906140
:104D00009093EB0021E030E001C0220F8A95EAF792
:104D10002093EA001092EA008091EB008860EACFCD
:104D20008111A7CF10914A021F778091E30080780C
:104D3000812B8093E3008091E800877F8093E800D7
:104D40000E9403248091E80080FFFCCF8091E30063
:104D500080688093E30083E0111101C082E08093BA
:104D6000470287CF8058823008F083CF80914A0273
:104D700090914B028C3D23E09207A1F583E08A835A
:104D80008AE289834FB7F894DE01139620E03EE073
:104D900051E2E32FF0E050935700E49120FF03C06D
:104DA000E295EF703F5FEF708E2F90E0EA30C0F039
:104DB000C7968D939D932F5F243159F74FBF8091F4
:104DC000E800877F8093E8006AE270E0CE010196F8
:104DD0000E9410238091E8008B778093E80049CFF0
:104DE000C096E7CF60914C0270914D02AE014F5FCB
:104DF0005F4F0E943622BC01892B09F43ACF909173
:104E0000E800977F9093E80089819A810E946F2340
:104E1000E1CF803809F02DCF8091E800877F809323
:104E2000E800809143028093F10018CF811121CFD7
:104E300090914A02923008F01CCF8091E800877F61
:104E40008093E800909343020E94032480914302E0
:104E5000882331F084E0809347020E943C2109CFEF
:104E60008091E30087FDF6CF81E0F5CF0895CF93E1
:104E700080914702882399F0C091E900CF7080911A
:104E8000EC0080FD0EC080E0C82B1092E9008091FC
:104E9000E80083FD0E94DB25CF70C093E900CF912D
:104EA000089580E8F1CFDB018F939F930E94C22782
:104EB000BF91AF91A29F800D911DA39F900DB29FB6
:104EC000900D11240895AA1BBB1B51E107C0AA1F16
:104ED000BB1FA617B70710F0A61BB70B881F991F9B
:104EE0005A95A9F780959095BC01CD01089597FB3F
:104EF000072E16F4009407D077FD09D00E9463278F
:104F000007FC05D03EF4909581959F4F08957095CC
:104F100061957F4F0895A1E21A2EAA1BBB1BFD01CC
:104F20000DC0AA1FBB1FEE1FFF1FA217B307E40788
:104F3000F50720F0A21BB30BE40BF50B661F771FE0
:104F4000881F991F1A9469F76095709580959095C0
:104F50009B01AC01BD01CF010895EE0FFF1F05902D
:104F6000F491E02D0994A29FB001B39FC001A39FCB
:104F7000700D811D1124911DB29F700D811D112492
:104F8000911D08950E94B327A59F900DB49F900D89
:104F9000A49F800D911D11240895F999FECF92BD13
:104FA00081BDF89A992780B50895A6E1B0E044E064
:104FB00050E00C940728A8E1B0E042E050E00C94E7
:104FC0000728262FF999FECF92BD81BDF89A019747
:104FD00000B4021639F01FBA20BD0FB6F894FA9A41
:104FE000F99A0FBE08950396272F0E94E2270E9488
:104FF000E127252F0E94E227242F0C94E227019617
:10500000272F0E94E2270C94E127DC01CB01FC0151
:10501000F999FECF06C0F2BDE1BDF89A319600B411
:0E5020000D9241505040B8F70895F894FFCF1C
:10502E0001CD012808140A321E5520F420C9209300
:10503E0020582001F6F73133323697C63492940059
:0E504E00000000000102030405060708090027
:00000001FF
